{
  "contractName": "Frog",
  "abi": [
    {
      "inputs": [
        {
          "internalType": "string",
          "name": "customBaseURI_",
          "type": "string"
        }
      ],
      "stateMutability": "nonpayable",
      "type": "constructor"
    },
    {
      "anonymous": false,
      "inputs": [
        {
          "indexed": true,
          "internalType": "address",
          "name": "owner",
          "type": "address"
        },
        {
          "indexed": true,
          "internalType": "address",
          "name": "approved",
          "type": "address"
        },
        {
          "indexed": true,
          "internalType": "uint256",
          "name": "tokenId",
          "type": "uint256"
        }
      ],
      "name": "Approval",
      "type": "event"
    },
    {
      "anonymous": false,
      "inputs": [
        {
          "indexed": true,
          "internalType": "address",
          "name": "owner",
          "type": "address"
        },
        {
          "indexed": true,
          "internalType": "address",
          "name": "operator",
          "type": "address"
        },
        {
          "indexed": false,
          "internalType": "bool",
          "name": "approved",
          "type": "bool"
        }
      ],
      "name": "ApprovalForAll",
      "type": "event"
    },
    {
      "anonymous": false,
      "inputs": [
        {
          "indexed": true,
          "internalType": "address",
          "name": "previousOwner",
          "type": "address"
        },
        {
          "indexed": true,
          "internalType": "address",
          "name": "newOwner",
          "type": "address"
        }
      ],
      "name": "OwnershipTransferred",
      "type": "event"
    },
    {
      "anonymous": false,
      "inputs": [
        {
          "indexed": true,
          "internalType": "address",
          "name": "from",
          "type": "address"
        },
        {
          "indexed": true,
          "internalType": "address",
          "name": "to",
          "type": "address"
        },
        {
          "indexed": true,
          "internalType": "uint256",
          "name": "tokenId",
          "type": "uint256"
        }
      ],
      "name": "Transfer",
      "type": "event"
    },
    {
      "inputs": [
        {
          "internalType": "address",
          "name": "to",
          "type": "address"
        },
        {
          "internalType": "uint256",
          "name": "tokenId",
          "type": "uint256"
        }
      ],
      "name": "approve",
      "outputs": [],
      "stateMutability": "nonpayable",
      "type": "function"
    },
    {
      "inputs": [
        {
          "internalType": "address",
          "name": "owner",
          "type": "address"
        }
      ],
      "name": "balanceOf",
      "outputs": [
        {
          "internalType": "uint256",
          "name": "",
          "type": "uint256"
        }
      ],
      "stateMutability": "view",
      "type": "function",
      "constant": true
    },
    {
      "inputs": [
        {
          "internalType": "uint256",
          "name": "tokenId",
          "type": "uint256"
        }
      ],
      "name": "getApproved",
      "outputs": [
        {
          "internalType": "address",
          "name": "",
          "type": "address"
        }
      ],
      "stateMutability": "view",
      "type": "function",
      "constant": true
    },
    {
      "inputs": [
        {
          "internalType": "address",
          "name": "owner",
          "type": "address"
        },
        {
          "internalType": "address",
          "name": "operator",
          "type": "address"
        }
      ],
      "name": "isApprovedForAll",
      "outputs": [
        {
          "internalType": "bool",
          "name": "",
          "type": "bool"
        }
      ],
      "stateMutability": "view",
      "type": "function",
      "constant": true
    },
    {
      "inputs": [],
      "name": "name",
      "outputs": [
        {
          "internalType": "string",
          "name": "",
          "type": "string"
        }
      ],
      "stateMutability": "view",
      "type": "function",
      "constant": true
    },
    {
      "inputs": [],
      "name": "owner",
      "outputs": [
        {
          "internalType": "address",
          "name": "",
          "type": "address"
        }
      ],
      "stateMutability": "view",
      "type": "function",
      "constant": true
    },
    {
      "inputs": [
        {
          "internalType": "uint256",
          "name": "tokenId",
          "type": "uint256"
        }
      ],
      "name": "ownerOf",
      "outputs": [
        {
          "internalType": "address",
          "name": "",
          "type": "address"
        }
      ],
      "stateMutability": "view",
      "type": "function",
      "constant": true
    },
    {
      "inputs": [],
      "name": "renounceOwnership",
      "outputs": [],
      "stateMutability": "nonpayable",
      "type": "function"
    },
    {
      "inputs": [
        {
          "internalType": "address",
          "name": "from",
          "type": "address"
        },
        {
          "internalType": "address",
          "name": "to",
          "type": "address"
        },
        {
          "internalType": "uint256",
          "name": "tokenId",
          "type": "uint256"
        }
      ],
      "name": "safeTransferFrom",
      "outputs": [],
      "stateMutability": "nonpayable",
      "type": "function"
    },
    {
      "inputs": [
        {
          "internalType": "address",
          "name": "from",
          "type": "address"
        },
        {
          "internalType": "address",
          "name": "to",
          "type": "address"
        },
        {
          "internalType": "uint256",
          "name": "tokenId",
          "type": "uint256"
        },
        {
          "internalType": "bytes",
          "name": "_data",
          "type": "bytes"
        }
      ],
      "name": "safeTransferFrom",
      "outputs": [],
      "stateMutability": "nonpayable",
      "type": "function"
    },
    {
      "inputs": [
        {
          "internalType": "address",
          "name": "operator",
          "type": "address"
        },
        {
          "internalType": "bool",
          "name": "approved",
          "type": "bool"
        }
      ],
      "name": "setApprovalForAll",
      "outputs": [],
      "stateMutability": "nonpayable",
      "type": "function"
    },
    {
      "inputs": [
        {
          "internalType": "bytes4",
          "name": "interfaceId",
          "type": "bytes4"
        }
      ],
      "name": "supportsInterface",
      "outputs": [
        {
          "internalType": "bool",
          "name": "",
          "type": "bool"
        }
      ],
      "stateMutability": "view",
      "type": "function",
      "constant": true
    },
    {
      "inputs": [],
      "name": "symbol",
      "outputs": [
        {
          "internalType": "string",
          "name": "",
          "type": "string"
        }
      ],
      "stateMutability": "view",
      "type": "function",
      "constant": true
    },
    {
      "inputs": [
        {
          "internalType": "uint256",
          "name": "tokenId",
          "type": "uint256"
        }
      ],
      "name": "tokenURI",
      "outputs": [
        {
          "internalType": "string",
          "name": "",
          "type": "string"
        }
      ],
      "stateMutability": "view",
      "type": "function",
      "constant": true
    },
    {
      "inputs": [
        {
          "internalType": "address",
          "name": "from",
          "type": "address"
        },
        {
          "internalType": "address",
          "name": "to",
          "type": "address"
        },
        {
          "internalType": "uint256",
          "name": "tokenId",
          "type": "uint256"
        }
      ],
      "name": "transferFrom",
      "outputs": [],
      "stateMutability": "nonpayable",
      "type": "function"
    },
    {
      "inputs": [
        {
          "internalType": "address",
          "name": "newOwner",
          "type": "address"
        }
      ],
      "name": "transferOwnership",
      "outputs": [],
      "stateMutability": "nonpayable",
      "type": "function"
    },
    {
      "inputs": [
        {
          "internalType": "string",
          "name": "customBaseURI_",
          "type": "string"
        }
      ],
      "name": "setBaseURI",
      "outputs": [],
      "stateMutability": "nonpayable",
      "type": "function"
    },
    {
      "inputs": [
        {
          "internalType": "uint256",
          "name": "quantity",
          "type": "uint256"
        }
      ],
      "name": "purchase",
      "outputs": [],
      "stateMutability": "payable",
      "type": "function",
      "payable": true
    },
    {
      "inputs": [],
      "name": "currentSupply",
      "outputs": [
        {
          "internalType": "uint256",
          "name": "",
          "type": "uint256"
        }
      ],
      "stateMutability": "view",
      "type": "function",
      "constant": true
    }
  ],
  "bytecode": "0x60806040523480156200001157600080fd5b5060405162001ef738038062001ef78339810160408190526200003491620001e2565b6040518060400160405280600481526020016346726f6760e01b8152506040518060400160405280600481526020016346524f4760e01b8152508160009080519060200190620000869291906200013c565b5080516200009c9060019060208401906200013c565b505050620000b9620000b3620000e660201b60201c565b620000ea565b8051620000ce9060099060208401906200013c565b505066b1a2bc2ec50000600a556014600b5562000304565b3390565b600780546001600160a01b038381166001600160a01b0319831681179093556040519116919082907f8be0079c531659141344cd1fd0a4f28419497f9722a3daafe3b4186f6b6457e090600090a35050565b8280546200014a90620002b1565b90600052602060002090601f0160209004810192826200016e5760008555620001b9565b82601f106200018957805160ff1916838001178555620001b9565b82800160010185558215620001b9579182015b82811115620001b95782518255916020019190600101906200019c565b50620001c7929150620001cb565b5090565b5b80821115620001c75760008155600101620001cc565b60006020808385031215620001f5578182fd5b82516001600160401b03808211156200020c578384fd5b818501915085601f83011262000220578384fd5b815181811115620002355762000235620002ee565b604051601f8201601f19168101850183811182821017156200025b576200025b620002ee565b604052818152838201850188101562000272578586fd5b8592505b8183101562000295578383018501518184018601529184019162000276565b81831115620002a657858583830101525b979650505050505050565b600281046001821680620002c657607f821691505b60208210811415620002e857634e487b7160e01b600052602260045260246000fd5b50919050565b634e487b7160e01b600052604160045260246000fd5b611be380620003146000396000f3fe6080604052600436106101145760003560e01c8063715018a6116100a0578063b88d4fde11610064578063b88d4fde146102e1578063c87b56dd14610301578063e985e9c514610321578063efef39a114610341578063f2fde38b1461035457610114565b8063715018a61461026d578063771282f6146102825780638da5cb5b1461029757806395d89b41146102ac578063a22cb465146102c157610114565b806323b872dd116100e757806323b872dd146101c057806342842e0e146101e057806355f804b3146102005780636352211e1461022057806370a082311461024057610114565b806301ffc9a71461011957806306fdde031461014f578063081812fc14610171578063095ea7b31461019e575b600080fd5b34801561012557600080fd5b506101396101343660046113a2565b610374565b60405161014691906114e4565b60405180910390f35b34801561015b57600080fd5b506101646103bc565b60405161014691906114ef565b34801561017d57600080fd5b5061019161018c366004611420565b61044e565b6040516101469190611493565b3480156101aa57600080fd5b506101be6101b9366004611379565b61049a565b005b3480156101cc57600080fd5b506101be6101db36600461128b565b610532565b3480156101ec57600080fd5b506101be6101fb36600461128b565b61056a565b34801561020c57600080fd5b506101be61021b3660046113da565b610585565b34801561022c57600080fd5b5061019161023b366004611420565b6105db565b34801561024c57600080fd5b5061026061025b36600461123f565b610610565b6040516101469190611a54565b34801561027957600080fd5b506101be610654565b34801561028e57600080fd5b5061026061069f565b3480156102a357600080fd5b506101916106b0565b3480156102b857600080fd5b506101646106bf565b3480156102cd57600080fd5b506101be6102dc36600461133f565b6106ce565b3480156102ed57600080fd5b506101be6102fc3660046112c6565b6106e0565b34801561030d57600080fd5b5061016461031c366004611420565b61071f565b34801561032d57600080fd5b5061013961033c366004611259565b610840565b6101be61034f366004611420565b61086e565b34801561036057600080fd5b506101be61036f36600461123f565b61092d565b60006001600160e01b031982166380ac58cd60e01b14806103a557506001600160e01b03198216635b5e139f60e01b145b806103b457506103b48261099e565b90505b919050565b6060600080546103cb90611aeb565b80601f01602080910402602001604051908101604052809291908181526020018280546103f790611aeb565b80156104445780601f1061041957610100808354040283529160200191610444565b820191906000526020600020905b81548152906001019060200180831161042757829003601f168201915b5050505050905090565b6000610459826109b7565b61047e5760405162461bcd60e51b815260040161047590611845565b60405180910390fd5b506000908152600460205260409020546001600160a01b031690565b60006104a5826105db565b9050806001600160a01b0316836001600160a01b031614156104d95760405162461bcd60e51b8152600401610475906119c2565b806001600160a01b03166104eb6109d4565b6001600160a01b0316148061050757506105078161033c6109d4565b6105235760405162461bcd60e51b815260040161047590611698565b61052d83836109d8565b505050565b61054361053d6109d4565b82610a46565b61055f5760405162461bcd60e51b815260040161047590611a03565b61052d838383610ac3565b61052d838383604051806020016040528060008152506106e0565b61058d6109d4565b6001600160a01b031661059e6106b0565b6001600160a01b0316146105c45760405162461bcd60e51b815260040161047590611891565b80516105d790600990602084019061111f565b5050565b6000818152600260205260408120546001600160a01b0316806103b45760405162461bcd60e51b81526004016104759061173f565b60006001600160a01b0382166106385760405162461bcd60e51b8152600401610475906116f5565b506001600160a01b031660009081526003602052604090205490565b61065c6109d4565b6001600160a01b031661066d6106b0565b6001600160a01b0316146106935760405162461bcd60e51b815260040161047590611891565b61069d6000610bf0565b565b60006106ab6008610c42565b905090565b6007546001600160a01b031690565b6060600180546103cb90611aeb565b6105d76106d96109d4565b8383610c46565b6106f16106eb6109d4565b83610a46565b61070d5760405162461bcd60e51b815260040161047590611a03565b61071984848484610ce9565b50505050565b606061072a826109b7565b6107465760405162461bcd60e51b8152600401610475906117bd565b6000828152600660205260408120805461075f90611aeb565b80601f016020809104026020016040519081016040528092919081815260200182805461078b90611aeb565b80156107d85780601f106107ad576101008083540402835291602001916107d8565b820191906000526020600020905b8154815290600101906020018083116107bb57829003601f168201915b5050505050905060006107e9610d1c565b90508051600014156107fd575090506103b7565b81511561082f578082604051602001610817929190611464565b604051602081830303815290604052925050506103b7565b61083884610d2b565b949350505050565b6001600160a01b03918216600090815260056020908152604080832093909416825291909152205460ff1690565b80600a5461087c9190611a89565b34101561089b5760405162461bcd60e51b81526004016104759061195e565b600a8111156108bc5760405162461bcd60e51b81526004016104759061198b565b6108c46106b0565b6001600160a01b03166108fc82600a546108de9190611a89565b6040518115909202916000818181858888f19350505050158015610906573d6000803e3d6000fd5b5060005b818110156105d75761091b33610dae565b8061092581611b26565b91505061090a565b6109356109d4565b6001600160a01b03166109466106b0565b6001600160a01b03161461096c5760405162461bcd60e51b815260040161047590611891565b6001600160a01b0381166109925760405162461bcd60e51b815260040161047590611554565b61099b81610bf0565b50565b6001600160e01b031981166301ffc9a760e01b14919050565b6000908152600260205260409020546001600160a01b0316151590565b3390565b600081815260046020526040902080546001600160a01b0319166001600160a01b0384169081179091558190610a0d826105db565b6001600160a01b03167f8c5be1e5ebec7d5bd14f71427d1e84f3dd0314c0f7b2291e5b200ac8c7c3b92560405160405180910390a45050565b6000610a51826109b7565b610a6d5760405162461bcd60e51b81526004016104759061164c565b6000610a78836105db565b9050806001600160a01b0316846001600160a01b03161480610ab35750836001600160a01b0316610aa88461044e565b6001600160a01b0316145b8061083857506108388185610840565b826001600160a01b0316610ad6826105db565b6001600160a01b031614610afc5760405162461bcd60e51b8152600401610475906118c6565b6001600160a01b038216610b225760405162461bcd60e51b8152600401610475906115d1565b610b2d83838361052d565b610b386000826109d8565b6001600160a01b0383166000908152600360205260408120805460019290610b61908490611aa8565b90915550506001600160a01b0382166000908152600360205260408120805460019290610b8f908490611a5d565b909155505060008181526002602052604080822080546001600160a01b0319166001600160a01b0386811691821790925591518493918716917fddf252ad1be2c89b69c2b068fc378daa952ba7f163c4a11628f55a4df523b3ef91a4505050565b600780546001600160a01b038381166001600160a01b0319831681179093556040519116919082907f8be0079c531659141344cd1fd0a4f28419497f9722a3daafe3b4186f6b6457e090600090a35050565b5490565b816001600160a01b0316836001600160a01b03161415610c785760405162461bcd60e51b815260040161047590611615565b6001600160a01b0383811660008181526005602090815260408083209487168084529490915290819020805460ff1916851515179055517f17307eab39ab6107e8899845ad3d59bd9653f200f220920489ca2b5937696c3190610cdc9085906114e4565b60405180910390a3505050565b610cf4848484610ac3565b610d0084848484610dfb565b6107195760405162461bcd60e51b815260040161047590611502565b6060600980546103cb90611aeb565b6060610d36826109b7565b610d525760405162461bcd60e51b81526004016104759061190f565b6000610d5c610d1c565b90506000815111610d7c5760405180602001604052806000815250610da7565b80610d8684610f16565b604051602001610d97929190611464565b6040516020818303038152906040525b9392505050565b610db86008611031565b600b54610dc56008610c42565b1115610de35760405162461bcd60e51b81526004016104759061180e565b6000610def6008610c42565b90506105d7828261103a565b6000610e0f846001600160a01b0316611119565b15610f0b57836001600160a01b031663150b7a02610e2b6109d4565b8786866040518563ffffffff1660e01b8152600401610e4d94939291906114a7565b602060405180830381600087803b158015610e6757600080fd5b505af1925050508015610e97575060408051601f3d908101601f19168201909252610e94918101906113be565b60015b610ef1573d808015610ec5576040519150601f19603f3d011682016040523d82523d6000602084013e610eca565b606091505b508051610ee95760405162461bcd60e51b815260040161047590611502565b805181602001fd5b6001600160e01b031916630a85bd0160e11b149050610838565b506001949350505050565b606081610f3b57506040805180820190915260018152600360fc1b60208201526103b7565b8160005b8115610f655780610f4f81611b26565b9150610f5e9050600a83611a75565b9150610f3f565b60008167ffffffffffffffff811115610f8e57634e487b7160e01b600052604160045260246000fd5b6040519080825280601f01601f191660200182016040528015610fb8576020820181803683370190505b5090505b841561083857610fcd600183611aa8565b9150610fda600a86611b41565b610fe5906030611a5d565b60f81b81838151811061100857634e487b7160e01b600052603260045260246000fd5b60200101906001600160f81b031916908160001a90535061102a600a86611a75565b9450610fbc565b80546001019055565b6001600160a01b0382166110605760405162461bcd60e51b815260040161047590611788565b611069816109b7565b156110865760405162461bcd60e51b81526004016104759061159a565b6110926000838361052d565b6001600160a01b03821660009081526003602052604081208054600192906110bb908490611a5d565b909155505060008181526002602052604080822080546001600160a01b0319166001600160a01b03861690811790915590518392907fddf252ad1be2c89b69c2b068fc378daa952ba7f163c4a11628f55a4df523b3ef908290a45050565b3b151590565b82805461112b90611aeb565b90600052602060002090601f01602090048101928261114d5760008555611193565b82601f1061116657805160ff1916838001178555611193565b82800160010185558215611193579182015b82811115611193578251825591602001919060010190611178565b5061119f9291506111a3565b5090565b5b8082111561119f57600081556001016111a4565b600067ffffffffffffffff808411156111d3576111d3611b81565b604051601f8501601f1916810160200182811182821017156111f7576111f7611b81565b60405284815291508183850186101561120f57600080fd5b8484602083013760006020868301015250509392505050565b80356001600160a01b03811681146103b757600080fd5b600060208284031215611250578081fd5b610da782611228565b6000806040838503121561126b578081fd5b61127483611228565b915061128260208401611228565b90509250929050565b60008060006060848603121561129f578081fd5b6112a884611228565b92506112b660208501611228565b9150604084013590509250925092565b600080600080608085870312156112db578081fd5b6112e485611228565b93506112f260208601611228565b925060408501359150606085013567ffffffffffffffff811115611314578182fd5b8501601f81018713611324578182fd5b611333878235602084016111b8565b91505092959194509250565b60008060408385031215611351578182fd5b61135a83611228565b91506020830135801515811461136e578182fd5b809150509250929050565b6000806040838503121561138b578182fd5b61139483611228565b946020939093013593505050565b6000602082840312156113b3578081fd5b8135610da781611b97565b6000602082840312156113cf578081fd5b8151610da781611b97565b6000602082840312156113eb578081fd5b813567ffffffffffffffff811115611401578182fd5b8201601f81018413611411578182fd5b610838848235602084016111b8565b600060208284031215611431578081fd5b5035919050565b60008151808452611450816020860160208601611abf565b601f01601f19169290920160200192915050565b60008351611476818460208801611abf565b83519083019061148a818360208801611abf565b01949350505050565b6001600160a01b0391909116815260200190565b6001600160a01b03858116825284166020820152604081018390526080606082018190526000906114da90830184611438565b9695505050505050565b901515815260200190565b600060208252610da76020830184611438565b60208082526032908201527f4552433732313a207472616e7366657220746f206e6f6e20455243373231526560408201527131b2b4bb32b91034b6b83632b6b2b73a32b960711b606082015260800190565b60208082526026908201527f4f776e61626c653a206e6577206f776e657220697320746865207a65726f206160408201526564647265737360d01b606082015260800190565b6020808252601c908201527f4552433732313a20746f6b656e20616c7265616479206d696e74656400000000604082015260600190565b60208082526024908201527f4552433732313a207472616e7366657220746f20746865207a65726f206164646040820152637265737360e01b606082015260800190565b60208082526019908201527f4552433732313a20617070726f766520746f2063616c6c657200000000000000604082015260600190565b6020808252602c908201527f4552433732313a206f70657261746f7220717565727920666f72206e6f6e657860408201526b34b9ba32b73a103a37b5b2b760a11b606082015260800190565b60208082526038908201527f4552433732313a20617070726f76652063616c6c6572206973206e6f74206f7760408201527f6e6572206e6f7220617070726f76656420666f7220616c6c0000000000000000606082015260800190565b6020808252602a908201527f4552433732313a2062616c616e636520717565727920666f7220746865207a65604082015269726f206164647265737360b01b606082015260800190565b60208082526029908201527f4552433732313a206f776e657220717565727920666f72206e6f6e657869737460408201526832b73a103a37b5b2b760b91b606082015260800190565b6020808252818101527f4552433732313a206d696e7420746f20746865207a65726f2061646472657373604082015260600190565b60208082526031908201527f45524337323155524953746f726167653a2055524920717565727920666f72206040820152703737b732bc34b9ba32b73a103a37b5b2b760791b606082015260800190565b6020808252601c908201527f50726f6a6563742069732066696e6973686564206d696e74696e672e00000000604082015260600190565b6020808252602c908201527f4552433732313a20617070726f76656420717565727920666f72206e6f6e657860408201526b34b9ba32b73a103a37b5b2b760a11b606082015260800190565b6020808252818101527f4f776e61626c653a2063616c6c6572206973206e6f7420746865206f776e6572604082015260600190565b60208082526029908201527f4552433732313a207472616e73666572206f6620746f6b656e2074686174206960408201526839903737ba1037bbb760b91b606082015260800190565b6020808252602f908201527f4552433732314d657461646174613a2055524920717565727920666f72206e6f60408201526e3732bc34b9ba32b73a103a37b5b2b760891b606082015260800190565b602080825260139082015272139bdd08195b9bdd59da08115512081cd95b9d606a1b604082015260600190565b60208082526018908201527f43616e2774206d696e74206d6f7265207468616e2031302e0000000000000000604082015260600190565b60208082526021908201527f4552433732313a20617070726f76616c20746f2063757272656e74206f776e656040820152603960f91b606082015260800190565b60208082526031908201527f4552433732313a207472616e736665722063616c6c6572206973206e6f74206f6040820152701ddb995c881b9bdc88185c1c1c9bdd9959607a1b606082015260800190565b90815260200190565b60008219821115611a7057611a70611b55565b500190565b600082611a8457611a84611b6b565b500490565b6000816000190483118215151615611aa357611aa3611b55565b500290565b600082821015611aba57611aba611b55565b500390565b60005b83811015611ada578181015183820152602001611ac2565b838111156107195750506000910152565b600281046001821680611aff57607f821691505b60208210811415611b2057634e487b7160e01b600052602260045260246000fd5b50919050565b6000600019821415611b3a57611b3a611b55565b5060010190565b600082611b5057611b50611b6b565b500690565b634e487b7160e01b600052601160045260246000fd5b634e487b7160e01b600052601260045260246000fd5b634e487b7160e01b600052604160045260246000fd5b6001600160e01b03198116811461099b57600080fdfea26469706673582212201c1c1f8660fe52be49f738c52eedcfc785d3768a61c30f7a86a1c5dd98743b1664736f6c63430008000033",
  "immutableReferences": {},
  "source": "// SPDX-License-Identifier: MIT\npragma solidity ^0.8.0;\n\n// SOURCE: openzeppelin: https://docs.openzeppelin.com/contracts/4.x/erc721 \n// SOURCE: https://github.com/OpenZeppelin/openzeppelin-contracts/tree/master/contracts/token\n// import \"@openzeppelin/contracts/token/ERC721/ERC721.sol\";\nimport \"@openzeppelin/contracts/token/ERC721/extensions/ERC721URIStorage.sol\";\nimport \"@openzeppelin/contracts/utils/Counters.sol\";\nimport \"@openzeppelin/contracts/access/Ownable.sol\";\n\ncontract Frog is ERC721URIStorage, Ownable{\n    using Counters for Counters.Counter;\n    Counters.Counter private _tokenIds;\n\n    string private _customBaseURI;  \n    uint256 private _price;\n    uint256 private _maxMintable;\n    constructor(string memory customBaseURI_) ERC721(\"Frog\", \"FROG\") {\n        _customBaseURI = customBaseURI_;\n        _price = 0.05 ether;\n        _maxMintable = 20;\n    }\n\n    function setBaseURI(string memory customBaseURI_) public onlyOwner {\n        _customBaseURI = customBaseURI_;\n    }\n\n    function purchase(uint256 quantity) public payable {\n        require(msg.value >= (_price * quantity), \"Not enough ETH sent\");\n        require(quantity <= 10, \"Can't mint more than 10.\");\n        payable(owner()).transfer(_price * quantity);\n        for(uint i=0; i < quantity; i++) {\n            mintForPurchase(msg.sender);\n        }\n    }\n\n    function currentSupply() public view returns (uint256) {\n        return _tokenIds.current();\n    }\n\n    function mintForPurchase(address recipient) private  {\n        _tokenIds.increment();\n        require(_tokenIds.current() <= _maxMintable, \"Project is finished minting.\");\n\n        uint256 newItemId = _tokenIds.current();\n        _mint(recipient, newItemId);\n    }\n\n    function _baseURI() internal view virtual override returns (string memory) {\n        return _customBaseURI;\n    }\n}",
  "sourcePath": "/Users/jenniferkruk/Desktop/My_Work/swim/MyRepos/tutorials/interloop_template/contracts/Frog.sol",
  "compiler": {
    "name": "solc",
    "version": "0.8.0+commit.c7dfd78e.Emscripten.clang"
  },
  "schemaVersion": "3.4.4",
  "updatedAt": "2022-01-23T19:27:22.015Z",
  "networkType": "ethereum",
  "devdoc": {
    "kind": "dev",
    "methods": {
      "approve(address,uint256)": {
        "details": "See {IERC721-approve}."
      },
      "balanceOf(address)": {
        "details": "See {IERC721-balanceOf}."
      },
      "getApproved(uint256)": {
        "details": "See {IERC721-getApproved}."
      },
      "isApprovedForAll(address,address)": {
        "details": "See {IERC721-isApprovedForAll}."
      },
      "name()": {
        "details": "See {IERC721Metadata-name}."
      },
      "owner()": {
        "details": "Returns the address of the current owner."
      },
      "ownerOf(uint256)": {
        "details": "See {IERC721-ownerOf}."
      },
      "renounceOwnership()": {
        "details": "Leaves the contract without owner. It will not be possible to call `onlyOwner` functions anymore. Can only be called by the current owner. NOTE: Renouncing ownership will leave the contract without an owner, thereby removing any functionality that is only available to the owner."
      },
      "safeTransferFrom(address,address,uint256)": {
        "details": "See {IERC721-safeTransferFrom}."
      },
      "safeTransferFrom(address,address,uint256,bytes)": {
        "details": "See {IERC721-safeTransferFrom}."
      },
      "setApprovalForAll(address,bool)": {
        "details": "See {IERC721-setApprovalForAll}."
      },
      "supportsInterface(bytes4)": {
        "details": "See {IERC165-supportsInterface}."
      },
      "symbol()": {
        "details": "See {IERC721Metadata-symbol}."
      },
      "tokenURI(uint256)": {
        "details": "See {IERC721Metadata-tokenURI}."
      },
      "transferFrom(address,address,uint256)": {
        "details": "See {IERC721-transferFrom}."
      },
      "transferOwnership(address)": {
        "details": "Transfers ownership of the contract to a new account (`newOwner`). Can only be called by the current owner."
      }
    },
    "version": 1
  },
  "userdoc": {
    "kind": "user",
    "methods": {},
    "version": 1
  }
}